{
  "transactions": [
    {
      "hash": "0x983842df83eb8a13feba638eaa054a08e2aac074deea0198e6aee48cdf119257",
      "transactionType": "CALL",
      "contractName": null,
      "contractAddress": "0xd5763b8044dc4998737a8d506e612b3bf2821cf9",
      "function": "setUri(uint256,string)",
      "arguments": [
        "68524154396765511289417142245936414960322533004428907475765066051614122871971",
        "ipfs://bafkreiaetldqehowdwstfb6bctxenguhj67ts3smct2kr3ycjj7em5ggdm"
      ],
      "transaction": {
        "from": "0xb447e28c6894acd85594cf057e6e3c622493f03b",
        "to": "0xd5763b8044dc4998737a8d506e612b3bf2821cf9",
        "gas": "0x17a4c",
        "value": "0x0",
        "input": "0x782f08ae977f4c0597641e5807299d7617d5f98afc73d89cb5852684578defef68568ca300000000000000000000000000000000000000000000000000000000000000400000000000000000000000000000000000000000000000000000000000000042697066733a2f2f6261666b7265696165746c647165686f776477737466623662637478656e6775686a3637747333736d6374326b723379636a6a37656d356767646d000000000000000000000000000000000000000000000000000000000000",
        "nonce": "0x2",
        "chainId": "0x2105"
      },
      "additionalContracts": [],
      "isFixedGasLimit": false
    }
  ],
  "receipts": [
    {
      "status": "0x1",
      "cumulativeGasUsed": "0x19dce04",
      "logs": [
        {
          "address": "0xd5763b8044dc4998737a8d506e612b3bf2821cf9",
          "topics": [
            "0x459157ba24c7ab9878b165ef465fa6ae2ab42bcd8445f576be378768b0c47309",
            "0x977f4c0597641e5807299d7617d5f98afc73d89cb5852684578defef68568ca3",
            "0xb34e8aff7d3485574a7304217b37467328051dcbc892ba701a7053347598b7cc"
          ],
          "data": "0x",
          "blockHash": "0xf7c065af92d9248b55fe00b77bae0d1ed7dd8956665aaf090ddd88a754327170",
          "blockNumber": "0x1993545",
          "transactionHash": "0x983842df83eb8a13feba638eaa054a08e2aac074deea0198e6aee48cdf119257",
          "transactionIndex": "0x83",
          "logIndex": "0x111",
          "removed": false
        }
      ],
      "logsBloom": "0x00000000000000000000000000000000000000000000000000200000000000040000000000000000000000000000000000000000000000000000000000000080000000000000010000000000000400000000000000000000002000000000000000000000000000000000000000000000000000000000000000200000000000000000000000000000000000000000000000000000000000000000000000000000000000000000000000800000000000000000000000000000000000000000000000000000000000000000000000000000000001000000000000000000000000000000000000000000040000000000000000000000000010008000000000000000",
      "type": "0x2",
      "transactionHash": "0x983842df83eb8a13feba638eaa054a08e2aac074deea0198e6aee48cdf119257",
      "transactionIndex": "0x83",
      "blockHash": "0xf7c065af92d9248b55fe00b77bae0d1ed7dd8956665aaf090ddd88a754327170",
      "blockNumber": "0x1993545",
      "gasUsed": "0x102ab",
      "effectiveGasPrice": "0x1172a51",
      "from": "0xb447e28c6894acd85594cf057e6e3c622493f03b",
      "to": "0xd5763b8044dc4998737a8d506e612b3bf2821cf9",
      "contractAddress": null,
      "l1BaseFeeScalar": "0x8dd",
      "l1BlobBaseFee": "0x6c1d8d5f",
      "l1BlobBaseFeeScalar": "0x101c12",
      "l1Fee": "0x4795252e1c",
      "l1GasPrice": "0x2f19560c",
      "l1GasUsed": "0x9e2"
    }
  ],
  "libraries": [],
  "pending": [],
  "returns": {
    "tokenId": {
      "internal_type": "uint256",
      "value": "68524154396765511289417142245936414960322533004428907475765066051614122871971"
    },
    "uri": {
      "internal_type": "string",
      "value": "ipfs://bafkreiaetldqehowdwstfb6bctxenguhj67ts3smct2kr3ycjj7em5ggdm"
    }
  },
  "timestamp": 1740425069,
  "chain": 8453,
  "commit": "03253e6"
}